{
  "_format": "hh-sol-artifact-1",
  "contractName": "CrateTracker",
  "sourceName": "contracts/CrateTracker.sol",
  "abi": [
    {
      "inputs": [],
      "stateMutability": "nonpayable",
      "type": "constructor"
    },
    {
      "anonymous": false,
      "inputs": [
        {
          "indexed": true,
          "internalType": "string",
          "name": "crateId",
          "type": "string"
        },
        {
          "indexed": false,
          "internalType": "uint256",
          "name": "timestamp",
          "type": "uint256"
        },
        {
          "indexed": false,
          "internalType": "string",
          "name": "riskScore",
          "type": "string"
        },
        {
          "indexed": false,
          "internalType": "string",
          "name": "dataHash",
          "type": "string"
        },
        {
          "indexed": false,
          "internalType": "string",
          "name": "eventType",
          "type": "string"
        }
      ],
      "name": "CrateEventLogged",
      "type": "event"
    },
    {
      "inputs": [
        {
          "internalType": "string",
          "name": "_crateId",
          "type": "string"
        }
      ],
      "name": "getEventHistory",
      "outputs": [
        {
          "components": [
            {
              "internalType": "string",
              "name": "crateId",
              "type": "string"
            },
            {
              "internalType": "uint256",
              "name": "timestamp",
              "type": "uint256"
            },
            {
              "internalType": "string",
              "name": "riskScore",
              "type": "string"
            },
            {
              "internalType": "string",
              "name": "dataHash",
              "type": "string"
            },
            {
              "internalType": "string",
              "name": "eventType",
              "type": "string"
            }
          ],
          "internalType": "struct CrateTracker.CrateEvent[]",
          "name": "",
          "type": "tuple[]"
        }
      ],
      "stateMutability": "view",
      "type": "function"
    },
    {
      "inputs": [
        {
          "internalType": "string",
          "name": "_crateId",
          "type": "string"
        },
        {
          "internalType": "uint256",
          "name": "_timestamp",
          "type": "uint256"
        },
        {
          "internalType": "string",
          "name": "_riskScore",
          "type": "string"
        },
        {
          "internalType": "string",
          "name": "_dataHash",
          "type": "string"
        },
        {
          "internalType": "string",
          "name": "_eventType",
          "type": "string"
        }
      ],
      "name": "logCrateEvent",
      "outputs": [],
      "stateMutability": "nonpayable",
      "type": "function"
    },
    {
      "inputs": [],
      "name": "owner",
      "outputs": [
        {
          "internalType": "address",
          "name": "",
          "type": "address"
        }
      ],
      "stateMutability": "view",
      "type": "function"
    }
  ],
  "bytecode": "0x608060405234801561001057600080fd5b50336000806101000a81548173ffffffffffffffffffffffffffffffffffffffff021916908373ffffffffffffffffffffffffffffffffffffffff160217905550610f2c806100606000396000f3fe608060405234801561001057600080fd5b50600436106100415760003560e01c80630ca5621d146100465780638da5cb5b146100625780639d826e7114610080575b600080fd5b610060600480360381019061005b91906106f3565b6100b0565b005b61006a610270565b604051610077919061081f565b60405180910390f35b61009a6004803603810190610095919061083a565b610294565b6040516100a79190610a5e565b60405180910390f35b60008054906101000a900473ffffffffffffffffffffffffffffffffffffffff1673ffffffffffffffffffffffffffffffffffffffff163373ffffffffffffffffffffffffffffffffffffffff161461013e576040517f08c379a000000000000000000000000000000000000000000000000000000000815260040161013590610b03565b60405180910390fd5b60006040518060a001604052808781526020018681526020018581526020018481526020018381525090506001866040516101799190610b5f565b908152602001604051809103902081908060018154018082558091505060019003906000526020600020906005020160009091909190915060008201518160000190816101c69190610d82565b506020820151816001015560408201518160020190816101e69190610d82565b5060608201518160030190816101fc9190610d82565b5060808201518160040190816102129190610d82565b505050856040516102239190610b5f565b60405180910390207fb8ba5ed99b7316df00e57b44191575351e72dd1b0296068fd07c068a5a56b292868686866040516102609493929190610e9c565b60405180910390a2505050505050565b60008054906101000a900473ffffffffffffffffffffffffffffffffffffffff1681565b60606001826040516102a69190610b5f565b9081526020016040518091039020805480602002602001604051908101604052809291908181526020016000905b8282101561055857838290600052602060002090600502016040518060a001604052908160008201805461030790610ba5565b80601f016020809104026020016040519081016040528092919081815260200182805461033390610ba5565b80156103805780601f1061035557610100808354040283529160200191610380565b820191906000526020600020905b81548152906001019060200180831161036357829003601f168201915b50505050508152602001600182015481526020016002820180546103a390610ba5565b80601f01602080910402602001604051908101604052809291908181526020018280546103cf90610ba5565b801561041c5780601f106103f15761010080835404028352916020019161041c565b820191906000526020600020905b8154815290600101906020018083116103ff57829003601f168201915b5050505050815260200160038201805461043590610ba5565b80601f016020809104026020016040519081016040528092919081815260200182805461046190610ba5565b80156104ae5780601f10610483576101008083540402835291602001916104ae565b820191906000526020600020905b81548152906001019060200180831161049157829003601f168201915b505050505081526020016004820180546104c790610ba5565b80601f01602080910402602001604051908101604052809291908181526020018280546104f390610ba5565b80156105405780601f1061051557610100808354040283529160200191610540565b820191906000526020600020905b81548152906001019060200180831161052357829003601f168201915b505050505081525050815260200190600101906102d4565b505050509050919050565b6000604051905090565b600080fd5b600080fd5b600080fd5b600080fd5b6000601f19601f8301169050919050565b7f4e487b7100000000000000000000000000000000000000000000000000000000600052604160045260246000fd5b6105ca82610581565b810181811067ffffffffffffffff821117156105e9576105e8610592565b5b80604052505050565b60006105fc610563565b905061060882826105c1565b919050565b600067ffffffffffffffff82111561062857610627610592565b5b61063182610581565b9050602081019050919050565b82818337600083830152505050565b600061066061065b8461060d565b6105f2565b90508281526020810184848401111561067c5761067b61057c565b5b61068784828561063e565b509392505050565b600082601f8301126106a4576106a3610577565b5b81356106b484826020860161064d565b91505092915050565b6000819050919050565b6106d0816106bd565b81146106db57600080fd5b50565b6000813590506106ed816106c7565b92915050565b600080600080600060a0868803121561070f5761070e61056d565b5b600086013567ffffffffffffffff81111561072d5761072c610572565b5b6107398882890161068f565b955050602061074a888289016106de565b945050604086013567ffffffffffffffff81111561076b5761076a610572565b5b6107778882890161068f565b935050606086013567ffffffffffffffff81111561079857610797610572565b5b6107a48882890161068f565b925050608086013567ffffffffffffffff8111156107c5576107c4610572565b5b6107d18882890161068f565b9150509295509295909350565b600073ffffffffffffffffffffffffffffffffffffffff82169050919050565b6000610809826107de565b9050919050565b610819816107fe565b82525050565b60006020820190506108346000830184610810565b92915050565b6000602082840312156108505761084f61056d565b5b600082013567ffffffffffffffff81111561086e5761086d610572565b5b61087a8482850161068f565b91505092915050565b600081519050919050565b600082825260208201905092915050565b6000819050602082019050919050565b600081519050919050565b600082825260208201905092915050565b60005b838110156108e95780820151818401526020810190506108ce565b60008484015250505050565b6000610900826108af565b61090a81856108ba565b935061091a8185602086016108cb565b61092381610581565b840191505092915050565b610937816106bd565b82525050565b600060a083016000830151848203600086015261095a82826108f5565b915050602083015161096f602086018261092e565b506040830151848203604086015261098782826108f5565b915050606083015184820360608601526109a182826108f5565b915050608083015184820360808601526109bb82826108f5565b9150508091505092915050565b60006109d4838361093d565b905092915050565b6000602082019050919050565b60006109f482610883565b6109fe818561088e565b935083602082028501610a108561089f565b8060005b85811015610a4c5784840389528151610a2d85826109c8565b9450610a38836109dc565b925060208a01995050600181019050610a14565b50829750879550505050505092915050565b60006020820190508181036000830152610a7881846109e9565b905092915050565b600082825260208201905092915050565b7f4f6e6c7920746865206f776e6572202841646d696e292063616e20706572666f60008201527f726d207468697320616374696f6e000000000000000000000000000000000000602082015250565b6000610aed602e83610a80565b9150610af882610a91565b604082019050919050565b60006020820190508181036000830152610b1c81610ae0565b9050919050565b600081905092915050565b6000610b39826108af565b610b438185610b23565b9350610b538185602086016108cb565b80840191505092915050565b6000610b6b8284610b2e565b915081905092915050565b7f4e487b7100000000000000000000000000000000000000000000000000000000600052602260045260246000fd5b60006002820490506001821680610bbd57607f821691505b602082108103610bd057610bcf610b76565b5b50919050565b60008190508160005260206000209050919050565b60006020601f8301049050919050565b600082821b905092915050565b600060088302610c387fffffffffffffffffffffffffffffffffffffffffffffffffffffffffffffffff82610bfb565b610c428683610bfb565b95508019841693508086168417925050509392505050565b6000819050919050565b6000610c7f610c7a610c75846106bd565b610c5a565b6106bd565b9050919050565b6000819050919050565b610c9983610c64565b610cad610ca582610c86565b848454610c08565b825550505050565b600090565b610cc2610cb5565b610ccd818484610c90565b505050565b5b81811015610cf157610ce6600082610cba565b600181019050610cd3565b5050565b601f821115610d3657610d0781610bd6565b610d1084610beb565b81016020851015610d1f578190505b610d33610d2b85610beb565b830182610cd2565b50505b505050565b600082821c905092915050565b6000610d5960001984600802610d3b565b1980831691505092915050565b6000610d728383610d48565b9150826002028217905092915050565b610d8b826108af565b67ffffffffffffffff811115610da457610da3610592565b5b610dae8254610ba5565b610db9828285610cf5565b600060209050601f831160018114610dec5760008415610dda578287015190505b610de48582610d66565b865550610e4c565b601f198416610dfa86610bd6565b60005b82811015610e2257848901518255600182019150602085019450602081019050610dfd565b86831015610e3f5784890151610e3b601f891682610d48565b8355505b6001600288020188555050505b505050505050565b610e5d816106bd565b82525050565b6000610e6e826108af565b610e788185610a80565b9350610e888185602086016108cb565b610e9181610581565b840191505092915050565b6000608082019050610eb16000830187610e54565b8181036020830152610ec38186610e63565b90508181036040830152610ed78185610e63565b90508181036060830152610eeb8184610e63565b90509594505050505056fea2646970667358221220edde605d687f9087750e8bd33aa0dfc782c9b996422c9ef6233c79b29807bd7064736f6c63430008180033",
  "linkReferences": {},
  "deployedLinkReferences": {}
}